{
  "contractName": "QuantumCoinSale",
  "abi": [
    {
      "constant": true,
      "inputs": [],
      "name": "tokenSold",
      "outputs": [
        {
          "name": "",
          "type": "uint256"
        }
      ],
      "payable": false,
      "stateMutability": "view",
      "type": "function"
    },
    {
      "constant": true,
      "inputs": [],
      "name": "tokenContract",
      "outputs": [
        {
          "name": "",
          "type": "address"
        }
      ],
      "payable": false,
      "stateMutability": "view",
      "type": "function"
    },
    {
      "constant": true,
      "inputs": [],
      "name": "tokenPrice",
      "outputs": [
        {
          "name": "",
          "type": "uint256"
        }
      ],
      "payable": false,
      "stateMutability": "view",
      "type": "function"
    },
    {
      "inputs": [
        {
          "name": "_tokenContract",
          "type": "address"
        },
        {
          "name": "_tokenPrice",
          "type": "uint256"
        }
      ],
      "payable": false,
      "stateMutability": "nonpayable",
      "type": "constructor"
    },
    {
      "anonymous": false,
      "inputs": [
        {
          "indexed": false,
          "name": "_buyer",
          "type": "address"
        },
        {
          "indexed": false,
          "name": "_amount",
          "type": "uint256"
        }
      ],
      "name": "Sell",
      "type": "event"
    },
    {
      "constant": false,
      "inputs": [
        {
          "name": "_numberOfTokens",
          "type": "uint256"
        }
      ],
      "name": "buyTokens",
      "outputs": [],
      "payable": true,
      "stateMutability": "payable",
      "type": "function"
    },
    {
      "constant": false,
      "inputs": [],
      "name": "endSale",
      "outputs": [],
      "payable": false,
      "stateMutability": "nonpayable",
      "type": "function"
    }
  ],
  "bytecode": "0x608060405234801561001057600080fd5b506040516040806107598339810180604052604081101561003057600080fd5b810190808051906020019092919080519060200190929190505050336000806101000a81548173ffffffffffffffffffffffffffffffffffffffff021916908373ffffffffffffffffffffffffffffffffffffffff16021790555081600160006101000a81548173ffffffffffffffffffffffffffffffffffffffff021916908373ffffffffffffffffffffffffffffffffffffffff160217905550806002819055505050610675806100e46000396000f3fe60806040526004361061004a5760003560e01c80633610724e1461004f578063380d831b1461007d578063519ee19e1461009457806355a373d6146100bf5780637ff9b59614610116575b600080fd5b61007b6004803603602081101561006557600080fd5b8101908080359060200190929190505050610141565b005b34801561008957600080fd5b506100926103a9565b005b3480156100a057600080fd5b506100a96105eb565b6040518082815260200191505060405180910390f35b3480156100cb57600080fd5b506100d46105f1565b604051808273ffffffffffffffffffffffffffffffffffffffff1673ffffffffffffffffffffffffffffffffffffffff16815260200191505060405180910390f35b34801561012257600080fd5b5061012b610617565b6040518082815260200191505060405180910390f35b61014d8160025461061d565b341461015857600080fd5b80600160009054906101000a900473ffffffffffffffffffffffffffffffffffffffff1673ffffffffffffffffffffffffffffffffffffffff166370a08231306040518263ffffffff1660e01b8152600401808273ffffffffffffffffffffffffffffffffffffffff1673ffffffffffffffffffffffffffffffffffffffff16815260200191505060206040518083038186803b1580156101f857600080fd5b505afa15801561020c573d6000803e3d6000fd5b505050506040513d602081101561022257600080fd5b8101908080519060200190929190505050101561023e57600080fd5b600160009054906101000a900473ffffffffffffffffffffffffffffffffffffffff1673ffffffffffffffffffffffffffffffffffffffff1663a9059cbb33836040518363ffffffff1660e01b8152600401808373ffffffffffffffffffffffffffffffffffffffff1673ffffffffffffffffffffffffffffffffffffffff16815260200182815260200192505050602060405180830381600087803b1580156102e757600080fd5b505af11580156102fb573d6000803e3d6000fd5b505050506040513d602081101561031157600080fd5b810190808051906020019092919050505061032b57600080fd5b806003600082825401925050819055507f5e5e995ce3133561afceaa51a9a154d5db228cd7525d34df5185582c18d3df093382604051808373ffffffffffffffffffffffffffffffffffffffff1673ffffffffffffffffffffffffffffffffffffffff1681526020018281526020019250505060405180910390a150565b6000809054906101000a900473ffffffffffffffffffffffffffffffffffffffff1673ffffffffffffffffffffffffffffffffffffffff163373ffffffffffffffffffffffffffffffffffffffff161461040257600080fd5b600160009054906101000a900473ffffffffffffffffffffffffffffffffffffffff1673ffffffffffffffffffffffffffffffffffffffff1663a9059cbb6000809054906101000a900473ffffffffffffffffffffffffffffffffffffffff16600160009054906101000a900473ffffffffffffffffffffffffffffffffffffffff1673ffffffffffffffffffffffffffffffffffffffff166370a08231306040518263ffffffff1660e01b8152600401808273ffffffffffffffffffffffffffffffffffffffff1673ffffffffffffffffffffffffffffffffffffffff16815260200191505060206040518083038186803b15801561050157600080fd5b505afa158015610515573d6000803e3d6000fd5b505050506040513d602081101561052b57600080fd5b81019080805190602001909291905050506040518363ffffffff1660e01b8152600401808373ffffffffffffffffffffffffffffffffffffffff1673ffffffffffffffffffffffffffffffffffffffff16815260200182815260200192505050602060405180830381600087803b1580156105a557600080fd5b505af11580156105b9573d6000803e3d6000fd5b505050506040513d60208110156105cf57600080fd5b81019080805190602001909291905050506105e957600080fd5b565b60035481565b600160009054906101000a900473ffffffffffffffffffffffffffffffffffffffff1681565b60025481565b60008082148061063a575080828385029250828161063757fe5b04145b61064357600080fd5b9291505056fea165627a7a72305820186c666ae9eaa84a403e03f2f5f36ad524245c225fa09aa33037f96280453e440029",
  "source": "pragma solidity ^0.5.8;\r\n\r\nimport \"./QuantumCoin.sol\";\r\n\r\ncontract QuantumCoinSale {\r\n\taddress admin; // contract deployer\r\n\tQuantumCoin public tokenContract;\r\n\tuint public tokenPrice;\r\n\tuint public tokenSold;\r\n\r\n\tevent Sell(address _buyer, uint _amount);\r\n\r\n\tconstructor(QuantumCoin _tokenContract, uint _tokenPrice) public {\r\n\t\tadmin = msg.sender;\r\n\t\ttokenContract = _tokenContract;\r\n\t\ttokenPrice = _tokenPrice;\r\n\t}\r\n\r\n\tfunction multiply(uint a, uint b) internal pure returns(uint c) {\r\n\t\trequire(b == 0 || (c = a * b) / b == c);\r\n\t}\r\n\r\n\tfunction buyTokens(uint _numberOfTokens) public payable {\r\n\t\trequire(msg.value == multiply(_numberOfTokens, tokenPrice));\r\n\t\trequire(tokenContract.balanceOf(address(this)) >= _numberOfTokens);\r\n\t\trequire(tokenContract.transfer(msg.sender, _numberOfTokens));\r\n\t\ttokenSold += _numberOfTokens;\r\n\r\n\t\temit Sell(msg.sender, _numberOfTokens);\r\n\t}\r\n\r\n\tfunction endSale() public {\r\n\t\trequire(msg.sender == admin);\r\n\t\trequire(tokenContract.transfer(admin, tokenContract.balanceOf(address(this))));\r\n\t}\r\n}\r\n",
  "sourcePath": "C:/Users/faleka/Desktop/tt/projects/blckh/ownToken/contracts/QuantumCoinSale.sol",
  "compiler": {
    "name": "solc",
    "version": "0.5.8+commit.23d335f2.Emscripten.clang"
  },
  "schemaVersion": "3.0.12",
  "updatedAt": "2019-08-18T10:01:39.453Z",
  "devdoc": {
    "methods": {}
  },
  "userdoc": {
    "methods": {}
  }
}